:100000000080002099150000A71100005316000081
:100010005F1600003D1800003F18000000000000BF
:100020000000000000000000000000004118000077
:1000300043180000000000004518000047180000A9
:1000400051170000591700006117000069170000E0
:100050007117000079170000811700008917000050
:100060009117000099170000A1170000A9170000C0
:10007000B1170000B9170000C1170000C917000030
:10008000D117000039180000391800003918000095
:10009000391800003918000039180000391800001C
:1000A000D9170000E1170000E9170000F117000060
:1000B000F9170000011800003918000009180000A5
:1000C000111800001918000021180000291800005C
:1000D00031180000391800003918000039180000E4
:1000E00039180000391800003918000039180000CC
:1000F00039180000391800003918000039180000BC
:1001000039180000391800003918000039180000AB
:10011000391800003918000039180000391800009B
:1003F000391800003918000039180000FFFFFFFF0E
:10040000FFFFFFFFFFFFFFFFFFFFFFFFFEFFFFFFFD
:10041000DFF850140A6832F44022830413F44023B6
:100420001A430A607047DFF840140A6832F48032D9
:10043000030413F480331A430A607047037813F0FF
:100440005F030A78134303707047027812F0F002DA
:100450000A430270704710B5DFF8E0030078C0B2BD
:1004600010F00100002802D0012810D01FE0DFF8B2
:10047000D0432068002808D1E722DFF8C813DFF84E
:10048000C80300F073FAAFF30080206810E0DFF8D3
:10049000BC432068002808D1EC22DFF8A813DFF85D
:1004A000D00300F063FAAFF30080206800E0002082
:1004B00010BD38B5FFF7CFFF00282DD0DFF890131F
:1004C0000978C1F3C202D040DFF888130978C1F37C
:1004D0000113DFF868130C7814F001041900C9B295
:1004E000002919D02100C9B2002915D11100C9B2C3
:1004F0000029052904D9891F04D0491E06D009E026
:10050000400909E01421B0FBF1F005E00C21B0FB3B
:10051000F1F001E00021080032BDDFF83C03007873
:10052000C00703D4DFF83403006808E0DFF83003C5
:100530000068DFF840130978C1F34201C8407047F2
:1005400080B5DFF814030078C0B2C0F300100028B3
:1005500002D1FFF7AEFF02E0DFF80003006802BD42
:1005600080B5FFF778FF02BD010049F6980081428F
:1005700001D2002006E0DFF80003814201D2012011
:1005800000E00220C0B2704780B500F015F8DFF837
:1005900060130968090F491CB0FBF1F002BD10B5EA
:1005A00004006068DFF8481308602078FFF73BFF1D
:1005B0006078FFF72DFF10BD10B5DFF89C020078C2
:1005C000C0B2C0F38104002C07D0022C0BD007D39B
:1005D000032C0BD100F02EF809E000F009F806E03A
:1005E000FFF79BFF03E0FFF736FF00E0002010BDA0
:1005F00080B5DFF860020078800704D4DFF8580285
:100600000078800601D5002013E0FFF799FF00284D
:100610000FD0DFF8E0221178C1F341111278D2092E
:10062000DFF82833C9B203EB8101D2B231F81210DE
:10063000484302BD10B5DFF820020078400601D41F
:1006400000201FE0FFF78CFF0400002C09D140F2CE
:100650006D22DFF8F011DFF8A00200F087F9AFF3A8
:100660000080DFF898020078C0B210F01F00401C34
:10067000B4FBF0F0DFF8D8120978C9B211F01F010D
:100680001831484310BD30B40100DFF8C84220786B
:1006900010F001000A00D2B2904201D0012200E025
:1006A0000022257815F0FE0511F0010005432570A4
:1006B0001000C0B2002808D040F2DC50030018003F
:1006C000431E002801D000BFF9E7002030BC70476E
:1006D000F0B50300DFF880412078C0F3810526786B
:1006E00016F00106DFF88C010778C7F3420794463D
:1006F000BE465FFA8CFC5FFA8EFEF44527D0B44606
:100700005FFA8CFCBCF1010F15D1012D06D0DFF88A
:1007100048C29CF800C05FEA8C7C0CD5DFF834C17D
:100720009CF800E01EF0FE0E8CF800E094F800C08B
:100730005FEACC7CFAD490F800C01CF0D00C5FEAE1
:10074000420E1EF00E0E5EEA0C0C80F800C0DFF8C0
:1007500004C19CF800E01EF0FE0E11F0010050EA0A
:100760000E0E8CF800E0DFF8F00190F800C01CF0ED
:10077000FC0C53EA0C0C80F800C0012D01D0980746
:1007800007D5207810F001008C465FFA8CFC60459C
:10079000F7D10020F0BD38B50400002C09D140F29B
:1007A0002D32DFF8A010DFF8B40100F0DFF8AFF36E
:1007B00000800020617811F01F010843DFF83C1130
:1007C0000870DFF88C21137813F0E003A57815F09A
:1007D0001F052B4313700A78237853F040031A4304
:1007E0000A70DFF87C1109784906FAD531BD70B579
:1007F00004002068FFF7B8FE05001C4E2179300088
:10080000FFF723FEA11D3000FFF718FE11490A78FB
:1008100012F0C302280110F0300002436079024355
:100820000A706079002807D03078000604D5DFF818
:10083000300100788007FAD570BD00000C400640FA
:100840000C80FF1F90140000D41600001080FF1FC2
:100850000040064001400640064006400080FF1F61
:100860000480FF1F007004400480044000500640D4
:10087000A81600000840064001127A00F8B50500ED
:100880000C00002C09D140F2B952DFF8DC10DFF87F
:10089000CC0000F06BF8AFF30080DFF8C8000178FF
:1008A00011F0FD010170DFF8B000017811F03B019B
:1008B00051F080010170DFF8A860307810F01C0062
:1008C0000828F8D1DFF88870387810F0BF00387049
:1008D00030788006FCD42000FFF75DFF387850F0B8
:1008E0004000387030788006FCD50020F2BD000052
:1008F0004480044003400640E016000004400640E7
:1009000070B505000E001400002C07D140F26362A0
:100910001549124800F02AF8AFF300802800C0B251
:10092000FFF7B1FE21003000C0B2FFF7A7FF0A4871
:10093000017811F03F01017009480078C0B2C0F39E
:1009400081000328F8D1002070BD0000B816000017
:10095000054006400C4006400040064038170000A5
:1009600006400640014006409014000070B50400A7
:100970000D00160033002A002100024800F058F84C
:1009800000BEFDE7181500000A00D2B2002A04D00C
:10099000C27852F00802C27003E0C27812F0F70287
:1009A000C27070470A00D2B2002A04D0C27852F056
:1009B0000402C27003E0C27812F0FB02C2707047FA
:1009C0002DE9FF4104000D0016001F00DFF8D48060
:1009D00098F80000002801D0012026E088F8006087
:1009E0003000C0B2012801D006281DD1C8F804404B
:1009F000684600F011FB00953A006946D8F80400FB
:100A000000F037FA0121D8F80400FFF7BDFF0121FB
:100A1000D8F80400FFF7C6FF2348C8F808002348A9
:100A2000C8F80C00002000E0042004B0BDE8F0810C
:100A30000EB430B504001B480078002802D15FF0E6
:100A4000FF3006E003AD2A0021000FF2110000F094
:100A5000A5F830BC5DF810FB0000000001B5114B9B
:100A60001878002802D15FF0FF3005E001226946C6
:100A700058689B689847012002BD80B5094B1878DB
:100A8000002802D15FF0FF300BE001226946586870
:100A9000DB689847002802D05FF0FF3001E09DF846
:100AA000000002BD1480FF1F6B10000083100000C7
:100AB0002DE9F84304000D0016001F00DDF820802A
:100AC000A946B14508DA2000C0B2C0473868401CCA
:100AD000386019F10109F4E7BDE8F1832DE9F04F21
:100AE00084460D001400099E0020E2465FF0000BD2
:100AF0008AF800B01AF1010A002C24D0D5F800B011
:100B00005946002905D15FF0300B8AF800B0401C2F
:100B100042E0002940D091FBF3FBDE4603FB1E1BA5
:100B2000BBF1000F05D55F467FEA070919F13109CE
:100B300002E0D94619F1300971468AF800901AF19D
:100B4000010A401CE5E7D5F800B05A46002A05D155
:100B50005FF0300B8AF800B0401C1DE0002A1BD06B
:100B6000B2FBF3FBD84603FB182BBBF10A0F02D2F2
:100B70005F46303709E03700FFB2002F01D0412730
:100B800000E061270A3F17EB0B0742468AF8007026
:100B90001AF1010A401CE1E7BDE8F08F2DE9F34F9F
:100BA00091B00700934600265FF0000800200290F5
:100BB00000208DF8040000200490DDF848A09AF889
:100BC00000000500002D00F00E81252D05D0280025
:100BD000B8470298401C029002E101208DF8050000
:100BE00000208146002003900398002813D11AF1B9
:100BF000010A9AF800000500302D07DB3A2D05DACE
:100C00000A21B5F1300001FB0909EDE7BAF1010A4B
:100C100001200390E8E7062005901AF10101087809
:100C20002E2819D100200590002003900398002859
:100C300013D1491C08780500302D09DB3A2D07DA5D
:100C4000059A0A23B5F1300003FB02020592EDE795
:100C5000491E01200390E9E7491E11F1010A9AF8A3
:100C600000000500642D11D0692D0FD0662D0DD028
:100C7000462D0BD0782D09D0582D07D06F2D05D0DB
:100C8000622D03D0702D01D0752D78D1642D01D047
:100C9000692D11D1DBF800001BF1040B06909DF8C3
:100CA000050000900A23012206A908A8FFF716FFF5
:100CB000804608A840440600582D01D0782D16D152
:100CC000782D02D100208DF80500DBF800001BF123
:100CD000040B04909DF8050000901023002204A945
:100CE00008A8FFF7FBFE804608A8404406006F2DC9
:100CF00005D0622D03D0702D01D0752D2CD1DBF8DD
:100D000000001BF1040B0490280062280AD06F2811
:100D100004D070280AD075280CD00FE008208DF878
:100D200004000BE002208DF8040007E010208DF88D
:100D3000040003E00A208DF80400FFE79DF8050099
:100D400000909DF80430002204A908A8FFF7C6FE11
:100D5000804608A840440600009702AB4A46414638
:100D60002020FFF7A5FE002E3AD03078002837D09B
:100D70003078B847761E0298401C0290F5E7632D44
:100D80000BD1DBF800001BF1040BC0B207900798F1
:100D9000B8470298401C029022E0732D1BD1DBF86B
:100DA00000001BF1040B0400002C19D0200000F0FF
:100DB000DFF98046009702AB4A4641462020FFF704
:100DC00077FE207800280BD02078B847641C029862
:100DD000401C0290F5E72800B8470298401C02909A
:100DE0001AF1010AEBE6029813B0BDE8F08F30B4B7
:100DF000002513E050F8042BD30744BFA9F10103E9
:100E00009A18091F042942F8045BFAD213468C078A
:100E100044BF15809B1CC90748BF1D7050F8041BB8
:100E20000029E7D130BC7047DFF8D81211EB104130
:100E30000A68012383401A430A60704770B50400B2
:100E400003260025B54207D2DFF8A00250F825009E
:100E5000A04201D06D1CF5E7B54208D3A922DFF806
:100E60009012DFF8E402FFF781FDAFF30080280065
:100E700070BD2DE9F84F05000C001600002C08D1BC
:100E8000D422DFF86C12DFF88002FFF76FFDAFF3BA
:100E900000802068002808D1D522DFF85412DFF83E
:100EA0008402FFF763FDAFF30080DFF87C72BD4280
:100EB00001D108200DE0DFF87402854201D1012044
:100EC00007E0DFF88802854201D1012001E05FF0F0
:100ED000FF306179884208DAD722DFF81412DFF890
:100EE0007002FFF743FDAFF30080BD4201D108203F
:100EF0000DE0DFF83802854201D1012007E0DFF87C
:100F00004C02854201D1012001E05FF0FF30A17960
:100F1000884208DAD822DFF8D811DFF83802FFF764
:100F200025FDAFF300800021002700202268120178
:100F3000B6FBF2F8424692B2002A01D1012188465E
:100F4000002172002368B2FBF3F9424692B2B9EB7A
:100F50004219720043469BB25B0113FA89F3B2FB5C
:100F6000F3FA2268524504D2D4F800B0BAEB0B0B66
:100F700003E0D4F800B0BBEB0A0B20686421B0FB9F
:100F8000F1F103204143594502D240F2F53041E0EE
:100F90002800FFF753FFDFF8C01151F82000FFF7DA
:100FA00043FFE87810F0F300E870297811F0E001D1
:100FB000404680B2000A0143297085F80180A97A71
:100FC00011F0E00119F01F000143A972A97811F096
:100FD000EC012079002803D0207950F01000014363
:100FE000A9706079E874A0796875287C50F0880051
:100FF0002874687C50F0C0006874EA78E0790028B2
:1010000001D052F00802207A002801D052F00402E8
:10101000EA700020BDE8F28F10B50400002C09D161
:1010200040F25D12DFF8C810DFF8DC00FFF79EFC2D
:10103000AFF300805FF4E1302060002020710020D9
:1010400060710120A0710020E0710020207210BDAD
:1010500001000879C0B24A7950EA02200A7B50EABE
:1010600002408A7C50EA0260704713005A1E002B2F
:1010700006D003791B06FCD50B78C371491CF4E735
:101080007047F8B505000C001700002C09D14FF48B
:101090000F72DFF85C10DFF8C400FFF767FCAFF3F6
:1010A00000803800471E00281ED0A87D002817D1D8
:1010B0002800FFF7CDFF0600300702D540F2F130DF
:1010C00013E0700702D540F2F2300EE0B00702D50F
:1010D00040F2F33009E0F007E7D54FF47D7004E00B
:1010E000E8792070641CDCE70020F2BDEC160000FB
:1010F000D414000080B51A4801680B48194A1268D8
:10110000904701BD007004404017000080B5FFF714
:10111000F1FF01BD80B5124841680448114A1268C8
:10112000904701BD9016000000A0064000B00640A8
:1011300080B5FFF7EFFF01BD80B50948816803481E
:10114000084A1268904701BD7416000000C00640AE
:10115000A81100005C120000F816000048170000FB
:101160002480FF1F3080FF1F80B5FFF7E5FF01BD22
:1011700000F10103810704D010F8011B820781B13F
:10118000FAD10268A2F10131914311F0803104BF1C
:1011900050F8042FF6E709BAB1FA81F100EBD1005B
:1011A000401CC01A7047FEE7282862617365292039
:1011B0003D3D202828554152545F54797065202ABE
:1011C00029283078343030364130303075292920A4
:1011D0003F20283829203A20282862617365292079
:1011E0003D3D202828554152545F54797065202A8E
:1011F0002928307834303036423030307529292073
:101200003F20283129203A2028286261736529204F
:101210003D3D202828554152545F54797065202A5D
:101220002928307834303036433030307529292041
:101230003F20283129203A20282D31292929292009
:101240003E3D20636F6E6669672D3E747846696621
:101250006F57617465726D61726B0000282862615E
:10126000736529203D3D202828554152545F54790B
:101270007065202A292830783430303641303030BB
:10128000752929203F20283829203A202828626102
:10129000736529203D3D202828554152545F5479DB
:1012A0007065202A2928307834303036423030308A
:1012B000752929203F20283129203A2028286261D9
:1012C000736529203D3D202828554152545F5479AB
:1012D0007065202A29283078343030364330303059
:1012E000752929203F20283129203A20282D31290D
:1012F000292929203E3D20636F6E6669672D3E7265
:10130000784669666F57617465726D61726B000033
:1013100010B5FFF739F90400230001225FF4E13131
:101320001548FFF74DFB10BD1448016851F44061AA
:1013300001601348016851F40021016011480168FF
:1013400051F0010101601048016831F4E06151F48D
:10135000807101600D48016831F4E06151F48071E1
:10136000016001200A4908605FF400200949086013
:10137000094908607047000000B00640388004400A
:1013800054F00F4094F00F404CA0044000B00440D3
:1013900088F00F4048F00F4044F00F405FF4803079
:1013A00018490860704718490860704717490A785B
:1013B00012F0C702C30013F038031A430A707047D3
:1013C00010B5FFF7EBFFFFF7AFFF114C2000FFF761
:1013D0000EFA2068FFF7E7FF0E4C2079FFF7E6FFD3
:1013E00014F108020021E079FFF78AFAE278A17887
:1013F0006078FFF76DF90848FFF7D1F8074808490A
:10140000086010BD448004400C80FF1F004006406F
:1014100030170000C816000028170000006CDC021E
:101420000880FF1F164911EB10410A680123834011
:101430001A430A60704710B450F8213033F4E06367
:101440001400E4B2240214F4E064234340F8213091
:1014500010BC704710B50B48FFF7E4FF0A4C03229D
:1014600000212000FFF7E7FF032201212000FFF702
:10147000E2FF0648016831F0F001016010BD000094
:10148000007004400D00381000D00440108004406B
:10149000433A5C4F746865725F436F64655F526581
:1014A000706F5C5457522D4B573234443531325C97
:1014B000646576696365735C4D4B57323444355CC3
:1014C000647269766572735C66736C5F636C6F637C
:1014D0006B2E6300433A5C4F746865725F436F64C0
:1014E000655F5265706F5C5457522D4B57323444D0
:1014F0003531325C646576696365735C4D4B573298
:101500003444355C647269766572735C66736C5FD3
:10151000756172742E630000415353455254204547
:1015200052524F52202220257320223A2066696CA5
:10153000652022257322204C696E652022256422B5
:10154000200A000030B450F8041B79B102684368E7
:1015500002440830DC0744BFA9F10104E31852F843
:10156000045B43F8045B091FF9D1ECE730BC70471A
:1015700010B5FFF76FFFFFF723FFFFF7C9FE054820
:10158000FFF756FAFFF779FA04002000C0B2FFF720
:1015900065FAF7E70417000072B6054805490160CF
:1015A0000A6882F308880448804762B60348004707
:1015B00008ED00E0000000000D160000111700000B
:1015C00010B5074979441831064C7C44163404E0C0
:1015D0000A68081D114488470146A142F8D110BD90
:1015E000080000002800000007F8FFFF28000000A6
:1015F0000C80FF1F000000004DFFFFFF0C000000EB
:101600001C0100000080FF1F0000000005484CF294
:10161000205101804DF6281101804FF4E9700249F4
:10162000088070470E2005400020054000F00DF8AE
:10163000002801D0FFF7C4FFAFF300800020AFF314
:101640000080FFF795FF00F002F80120704700F0DE
:1016500001B8FEE70746384600F002F8FBE7FEE770
:1016600080B5AFF30080024A11001820ABBEFBE743
:1016700026000200696E7374616E6365203C2075FC
:101680006172744172726179436F756E740000000B
:10169000636F6E6669672D3E626175645261746541
:1016A0005F42707300000000675F7874616C3332D2
:1016B00046726571000000008002DC020005B8057A
:1016C00080079508000A710B070200000000000067
:1016D00000010000675F7874616C304672657100CC
:1016E0006D6367706C6C30636C6B000000A006402B
:1016F00000B0064000C006400A0034100B00341051
:101700000C00341074657374312E0D0A0000000053
:10171000AFF30080AFF30080FFF788FF0080000088
:1017200000093D000000400101020000000001002E
:1017300000093D000004A000636F6E666967000049
:10174000636F6E6669670000646174610000000089
:1017500000480047391800000048004739180000C9
:1017600000480047391800000048004739180000B9
:1017700000480047391800000048004739180000A9
:101780000048004739180000004800473918000099
:101790000048004739180000004800473918000089
:1017A0000048004739180000004800473918000079
:1017B0000048004739180000004800473918000069
:1017C0000048004739180000004800473918000059
:1017D0000048004739180000004800473918000049
:1017E0000048004739180000004800473918000039
:1017F0000048004739180000004800473918000029
:101800000048004739180000004800470D1100004B
:101810000048004739180000004800473111000017
:1018200000480047391800000048004769110000CF
:101830000048004739180000FFF7FEBFFEE7FEE74B
:08184000FEE7FEE7FEE7FEE70C
:0400000500001711CF
:00000001FF
